{"abi":[{"type":"constructor","inputs":[{"name":"_tradingTokenAddress","type":"address","internalType":"address"}],"stateMutability":"nonpayable"},{"type":"function","name":"MAX_LEVERAGE","inputs":[],"outputs":[{"name":"","type":"uint256","internalType":"uint256"}],"stateMutability":"view"},{"type":"function","name":"Orderbook","inputs":[],"outputs":[{"name":"","type":"address","internalType":"contract IorderBook"}],"stateMutability":"view"},{"type":"function","name":"allowance","inputs":[{"name":"owner","type":"address","internalType":"address"},{"name":"spender","type":"address","internalType":"address"}],"outputs":[{"name":"","type":"uint256","internalType":"uint256"}],"stateMutability":"view"},{"type":"function","name":"approve","inputs":[{"name":"spender","type":"address","internalType":"address"},{"name":"value","type":"uint256","internalType":"uint256"}],"outputs":[{"name":"","type":"bool","internalType":"bool"}],"stateMutability":"nonpayable"},{"type":"function","name":"balanceOf","inputs":[{"name":"account","type":"address","internalType":"address"}],"outputs":[{"name":"","type":"uint256","internalType":"uint256"}],"stateMutability":"view"},{"type":"function","name":"balances","inputs":[{"name":"","type":"address","internalType":"address"}],"outputs":[{"name":"","type":"uint256","internalType":"uint256"}],"stateMutability":"view"},{"type":"function","name":"burn","inputs":[{"name":"value","type":"uint256","internalType":"uint256"}],"outputs":[],"stateMutability":"nonpayable"},{"type":"function","name":"burnFrom","inputs":[{"name":"account","type":"address","internalType":"address"},{"name":"value","type":"uint256","internalType":"uint256"}],"outputs":[],"stateMutability":"nonpayable"},{"type":"function","name":"calculateWithdrawAmount","inputs":[{"name":"lpTokenAmount","type":"uint256","internalType":"uint256"}],"outputs":[{"name":"","type":"uint256","internalType":"uint256"}],"stateMutability":"view"},{"type":"function","name":"decimals","inputs":[],"outputs":[{"name":"","type":"uint8","internalType":"uint8"}],"stateMutability":"view"},{"type":"function","name":"distributeRewards","inputs":[],"outputs":[],"stateMutability":"nonpayable"},{"type":"function","name":"getAvailableLiquidity","inputs":[],"outputs":[{"name":"","type":"uint256","internalType":"uint256"}],"stateMutability":"view"},{"type":"function","name":"leveragedLiquidity","inputs":[{"name":"","type":"address","internalType":"address"}],"outputs":[{"name":"","type":"uint256","internalType":"uint256"}],"stateMutability":"view"},{"type":"function","name":"name","inputs":[],"outputs":[{"name":"","type":"string","internalType":"string"}],"stateMutability":"view"},{"type":"function","name":"provideLiquidity","inputs":[{"name":"amount","type":"uint256","internalType":"uint256"},{"name":"leverage","type":"uint256","internalType":"uint256"}],"outputs":[],"stateMutability":"nonpayable"},{"type":"function","name":"rewards","inputs":[{"name":"","type":"address","internalType":"address"}],"outputs":[{"name":"","type":"uint256","internalType":"uint256"}],"stateMutability":"view"},{"type":"function","name":"setOrderBookAddress","inputs":[{"name":"_orderBookAddress","type":"address","internalType":"address"}],"outputs":[],"stateMutability":"nonpayable"},{"type":"function","name":"symbol","inputs":[],"outputs":[{"name":"","type":"string","internalType":"string"}],"stateMutability":"view"},{"type":"function","name":"totalLiquidity","inputs":[],"outputs":[{"name":"","type":"uint256","internalType":"uint256"}],"stateMutability":"view"},{"type":"function","name":"totalSupply","inputs":[],"outputs":[{"name":"","type":"uint256","internalType":"uint256"}],"stateMutability":"view"},{"type":"function","name":"tradeWithOrderBook","inputs":[{"name":"orderId","type":"uint256","internalType":"uint256"},{"name":"amount","type":"uint256","internalType":"uint256"}],"outputs":[],"stateMutability":"nonpayable"},{"type":"function","name":"tradingToken","inputs":[],"outputs":[{"name":"","type":"address","internalType":"contract IERC20"}],"stateMutability":"view"},{"type":"function","name":"transfer","inputs":[{"name":"to","type":"address","internalType":"address"},{"name":"value","type":"uint256","internalType":"uint256"}],"outputs":[{"name":"","type":"bool","internalType":"bool"}],"stateMutability":"nonpayable"},{"type":"function","name":"transferFrom","inputs":[{"name":"from","type":"address","internalType":"address"},{"name":"to","type":"address","internalType":"address"},{"name":"value","type":"uint256","internalType":"uint256"}],"outputs":[{"name":"","type":"bool","internalType":"bool"}],"stateMutability":"nonpayable"},{"type":"function","name":"withdrawLiquidity","inputs":[{"name":"lpTokenAmount","type":"uint256","internalType":"uint256"}],"outputs":[],"stateMutability":"nonpayable"},{"type":"event","name":"Approval","inputs":[{"name":"owner","type":"address","indexed":true,"internalType":"address"},{"name":"spender","type":"address","indexed":true,"internalType":"address"},{"name":"value","type":"uint256","indexed":false,"internalType":"uint256"}],"anonymous":false},{"type":"event","name":"Transfer","inputs":[{"name":"from","type":"address","indexed":true,"internalType":"address"},{"name":"to","type":"address","indexed":true,"internalType":"address"},{"name":"value","type":"uint256","indexed":false,"internalType":"uint256"}],"anonymous":false},{"type":"error","name":"ERC20InsufficientAllowance","inputs":[{"name":"spender","type":"address","internalType":"address"},{"name":"allowance","type":"uint256","internalType":"uint256"},{"name":"needed","type":"uint256","internalType":"uint256"}]},{"type":"error","name":"ERC20InsufficientBalance","inputs":[{"name":"sender","type":"address","internalType":"address"},{"name":"balance","type":"uint256","internalType":"uint256"},{"name":"needed","type":"uint256","internalType":"uint256"}]},{"type":"error","name":"ERC20InvalidApprover","inputs":[{"name":"approver","type":"address","internalType":"address"}]},{"type":"error","name":"ERC20InvalidReceiver","inputs":[{"name":"receiver","type":"address","internalType":"address"}]},{"type":"error","name":"ERC20InvalidSender","inputs":[{"name":"sender","type":"address","internalType":"address"}]},{"type":"error","name":"ERC20InvalidSpender","inputs":[{"name":"spender","type":"address","internalType":"address"}]},{"type":"error","name":"ReentrancyGuardReentrantCall","inputs":[]}],"bytecode":{"object":"0x60803461033957601f19906001600160401b0390601f9061180d3881900383810186168301858111848210176102495783928291604052833960209283918101031261033957516001600160a01b03811693908490036103395761006161033e565b92601684527f4c697175696469747950726f7669646572546f6b656e000000000000000000008385015261009361033e565b906003918281526213141560ea1b8582015285518481116102495783546001978882811c9216801561032f575b888310146103195781858493116102c8575b50879085831160011461026a5760009261025f575b505060001982861b1c191690871b1783555b80519384116102495760049485548781811c9116801561023f575b8282101461022a578381116101e8575b50849596979881938611600114610182575050600093610177575b505082851b92600019911b1c19161790555b600555600680546001600160a01b0319169190911790556040516114af908161035e8239f35b01519150388061013f565b88969493929194168760005284600020946000905b8282106101cf57505085116101b5575b50505050811b019055610151565b01519060f884600019921b161c19169055388080806101a7565b8484015187558a98909601959384019390810190610197565b86600052816000208480880160051c820192848910610221575b0160051c01905b8181106102165750610124565b600081558801610209565b92508192610202565b602287634e487b7160e01b6000525260246000fd5b90607f1690610114565b634e487b7160e01b600052604160045260246000fd5b0151905038806100e7565b908b8a94169187600052896000209260005b8b8282106102b2575050841161029a575b505050811b0183556100f9565b015160001983881b60f8161c1916905538808061028d565b8385015186558d9790950194938401930161027c565b90915085600052876000208580850160051c8201928a8610610310575b918b91869594930160051c01915b8281106103015750506100d2565b600081558594508b91016102f3565b925081926102e5565b634e487b7160e01b600052602260045260246000fd5b91607f16916100c0565b600080fd5b60408051919082016001600160401b038111838210176102495760405256fe608060408181526004918236101561001657600080fd5b600090813560e01c90816306fdde0314610f75575080630700037d14610f3d578063095ea7b314610e935780630a861f2a14610d7357806315770f92146107a557806318160ddd14610d5457806323b872dd14610d1757806327e235e314610cdf5780632ad8a22014610cb6578063313ce56714610c9a5780633c7181a114610c6257806342966c6814610c445780636f4a2cd014610b0757806370a0823114610ad057806379cc679014610a9d5780637a16af7f146108e557806395d89b41146107e05780639b45ec97146107c45780639b745aec146107a5578063a1b8a28c1461077c578063a9059cbb1461074b578063b1321d0d146101ff578063dd62ed3e146101ad578063e65c75f51461016f5763fde6c9fb1461013757600080fd5b3461016c57602036600319011261016c575061016561015c60209360075490356111a1565b600254906111b4565b9051908152f35b80fd5b503461016c57602036600319011261016c576001600160a01b036101916110b4565b166bffffffffffffffffffffffff60a01b600854161760085580f35b5090346101fb57806003193601126101fb576020916101ca6110b4565b826101d36110cf565b6001600160a01b03928316845260018652922091166000908152908352819020549051908152f35b5080fd5b5091346104325761020f366110e5565b61021a9391936111e1565b6008546001600160a01b0393908416338190036106f657835163ec7dd7bb60e01b8152828101879052602496906060818981865afa9081156106ec5789916106ac575b50855194859363bcfbd44560e01b85528386860152848a60209889935afa9384156105cf578a94610674575b5060075480821161066c5750925b600384028481046003148515171561065a576103e86102b89104809561117e565b91156104b857308a526009865281878b20541061047657600654875163a9059cbb60e01b81526001600160a01b03909216828701908152602081018490528b939291889183918c169082908790829060400103925af1801561046c578390610436575b6103259150611140565b6103318160075461117e565b6007555b876008541692833b15610432576044908389519586948593634002a14d60e11b85528a8501528d8401525af18015610428576103fb575b506002549586610380575b87600160055580f35b670de0b6b3a764000092838302928084048514901517156103ea575050856103a7916111b4565b93865b8681101561037757808260019216808a52898652846103cc89898d20546111a1565b04908a52600986526103e2878b209182546111d4565b9055016103aa565b634e487b7160e01b89526011905287fd5b67ffffffffffffffff8198929811610416578452953861036c565b5060418692634e487b7160e01b835252fd5b85513d8a823e3d90fd5b8280fd5b508681813d8311610465575b61044c81836110fb565b810103126104325761046061032591611133565b61031b565b503d610442565b88513d85823e3d90fd5b865162461bcd60e51b8152808601879052601e818b01527f496e73756666696369656e74206c697175696469747920746f2073656c6c00006044820152606490fd5b8760065416908751636eb1769f60e11b815289821687820152308b8201528781604481865afa908115610650579084918d9161061b575b50106105d95787516323b872dd60e01b81526001600160a01b03909116818701908152306020820152604081018490529091879183919082908e90829060600103925af19081156105cf578a91610596575b501561055d57806105558a926007546111d4565b600755610335565b855162461bcd60e51b81528085018690526014818a015273151c985b9cd9995c88199c9bdb4819985a5b195960621b6044820152606490fd5b90508581813d83116105c8575b6105ad81836110fb565b810103126105c4576105be90611133565b38610541565b8980fd5b503d6105a3565b87513d8c823e3d90fd5b875162461bcd60e51b8152808701889052601d818c01527f496e73756666696369656e7420616c6c6f77616e636520746f206275790000006044820152606490fd5b809250898092503d8311610649575b61063481836110fb565b8101031261064557839051386104ef565b8b80fd5b503d61062a565b89513d8e823e3d90fd5b634e487b7160e01b8b5260118652898bfd5b905092610297565b9093508581813d83116106a5575b61068c81836110fb565b810103126105c4575187811681036105c4579238610289565b503d610682565b90506060813d6060116106e4575b816106c7606093836110fb565b810103126106e057856106da9101611133565b3861025d565b8880fd5b3d91506106ba565b86513d8b823e3d90fd5b835162461bcd60e51b8152602081840152602960248201527f556e617574686f72697a65643a2043616c6c6572206973206e6f7420746865206044820152684f72646572626f6f6b60b81b6064820152608490fd5b5090346101fb57806003193601126101fb5760209061077561076b6110b4565b602435903361138f565b5160018152f35b5090346101fb57816003193601126101fb5760085490516001600160a01b039091168152602090f35b5090346101fb57816003193601126101fb576020906007549051908152f35b5090346101fb57816003193601126101fb576020905160058152f35b5090346101fb57816003193601126101fb5780519180938054916001908360011c92600185169485156108db575b60209586861081146108c8578589529081156108a4575060011461084c575b610848878761083e828c03836110fb565b519182918261106b565b0390f35b81529295507f8a35acfbc15ff81a39ae7d344fd709f28e8600b4aa8c65c6b64bfe7fe36bd19b5b82841061089157505050826108489461083e9282010194388061082d565b8054868501880152928601928101610873565b60ff19168887015250505050151560051b830101925061083e82610848388061082d565b634e487b7160e01b845260228352602484fd5b93607f169361080e565b50919034610432576108f6366110e5565b906108ff6111e1565b60058211610a5a5760065483516323b872dd60e01b81523381870190815230602082810191909152604082018590529692879183916001600160a01b03169082908b90829060600103925af18015610a50578790610a16575b6109629150611140565b61096b82611454565b9033156109ff5750916109ef9183610987600b956002546111d4565b6002553388528787528588208181540190558551908152877fddf252ad1be2c89b69c2b068fc378daa952ba7f163c4a11628f55a4df523b3ef883393a36109d0816007546111d4565b600755338752600986528487206109e88282546111d4565b90556111a1565b9233855252822055600160055580f35b845163ec442f0560e01b8152908101879052602490fd5b508581813d8311610a49575b610a2c81836110fb565b81010312610a4557610a4061096291611133565b610958565b8680fd5b503d610a22565b85513d89823e3d90fd5b825162461bcd60e51b8152602081860181905260248201527f4c657665726167652065786365656473206d6178696d756d20616c6c6f7765646044820152606490fd5b5090346101fb5736600319011261016c57610acd610ab96110b4565b60243590610ac88233836112bc565b611204565b80f35b5090346101fb5760203660031901126101fb5760209181906001600160a01b03610af86110b4565b16815280845220549051908152f35b509134610432578260031936011261043257610b216111e1565b6002549182610b34575b83600160055580f35b60065481516370a0823160e01b815230818501526001600160a01b039360209290919083908290602490829089165afa8015610c3a578790610c0b575b610b7f91506007549061117e565b8015918215610b92575b50505050610b2b565b670de0b6b3a76400009283830292830484141715610bf8575085610bb5916111b4565b93865b86811015610b8957808260019216808a5289865284610bda89898d20546111a1565b04908a52600a8652610bf0878b209182546111d4565b905501610bb8565b634e487b7160e01b885260119052602487fd5b508281813d8311610c33575b610c2181836110fb565b81010312610a4557610b7f9051610b71565b503d610c17565b84513d89823e3d90fd5b5082346101fb5760203660031901126101fb57610acd903533611204565b5090346101fb5760203660031901126101fb5760209181906001600160a01b03610c8a6110b4565b168152600b845220549051908152f35b5090346101fb57816003193601126101fb576020905160128152f35b5090346101fb57816003193601126101fb5760065490516001600160a01b039091168152602090f35b5090346101fb5760203660031901126101fb5760209181906001600160a01b03610d076110b4565b1681526009845220549051908152f35b5090346101fb5760603660031901126101fb57602090610775610d386110b4565b610d406110cf565b60443591610d4f8333836112bc565b61138f565b5090346101fb57816003193601126101fb576020906002549051908152f35b5080918334610e8f57602080600319360112610e8a57610db48183610dee943590610d9c6111e1565b610dab61015c600754846111a1565b93849233611204565b600654875163a9059cbb60e01b8152339281019283526020830193909352919586926001600160a01b03169183918a918391604090910190565b03925af1928315610e80578593610e41575b50610e0c600b93611140565b610e188160075461117e565b60075533855260098252610e3084862091825461117e565b905533845252812055600160055580f35b92508183813d8311610e79575b610e5881836110fb565b81010312610e7557610e0c610e6e600b94611133565b9350610e00565b8480fd5b503d610e4e565b84513d87823e3d90fd5b505050fd5b5050fd5b509134610432578160031936011261043257610ead6110b4565b602435903315610f26576001600160a01b0316918215610f0f57508083602095338152600187528181208582528752205582519081527f8c5be1e5ebec7d5bd14f71427d1e84f3dd0314c0f7b2291e5b200ac8c7c3b925843392a35160018152f35b8351634a1406b160e11b8152908101859052602490fd5b835163e602df0560e01b8152808401869052602490fd5b5090346101fb5760203660031901126101fb5760209181906001600160a01b03610f656110b4565b168152600a845220549051908152f35b9050828434611067578360031936011261106757600354600181811c918690828116801561105d575b602095868610821461104a57508488529081156110285750600114610fcf575b610848868661083e828b03836110fb565b929550600383527fc2575a0e9e593c00f959f8c92f12db2869c3395a3b0502d05e2516446f71f85b5b82841061101557505050826108489461083e928201019486610fbe565b8054868501880152928601928101610ff8565b60ff191687860152505050151560051b830101925061083e8261084886610fbe565b634e487b7160e01b845260229052602483fd5b93607f1693610f9e565b8380fd5b6020808252825181830181905290939260005b8281106110a057505060409293506000838284010152601f8019910116010190565b81810186015184820160400152850161107e565b600435906001600160a01b03821682036110ca57565b600080fd5b602435906001600160a01b03821682036110ca57565b60409060031901126110ca576004359060243590565b90601f8019910116810190811067ffffffffffffffff82111761111d57604052565b634e487b7160e01b600052604160045260246000fd5b519081151582036110ca57565b1561114757565b60405162461bcd60e51b815260206004820152600f60248201526e151c985b9cd9995c8819985a5b1959608a1b6044820152606490fd5b9190820391821161118b57565b634e487b7160e01b600052601160045260246000fd5b8181029291811591840414171561118b57565b81156111be570490565b634e487b7160e01b600052601260045260246000fd5b9190820180921161118b57565b6002600554146111f2576002600555565b604051633ee5aeb560e01b8152600490fd5b906001600160a01b0382169081156112a357600092828452836020526040842054908282106112715750817fddf252ad1be2c89b69c2b068fc378daa952ba7f163c4a11628f55a4df523b3ef926020928587528684520360408620558060025403600255604051908152a3565b60405163391434e360e21b81526001600160a01b03919091166004820152602481019190915260448101829052606490fd5b604051634b637e8f60e11b815260006004820152602490fd5b9160018060a01b0380931691600093838552600160205260409384862091831691828752602052848620549260001984036112fb575b50505050505050565b84841061135f5750801561134757811561132f578552600160205283852090855260205203912055388080808080806112f2565b8451634a1406b160e11b815260048101879052602490fd5b845163e602df0560e01b815260048101879052602490fd5b8551637dc7a0d960e11b81526001600160a01b039190911660048201526024810184905260448101859052606490fd5b916001600160a01b038084169283156112a3571692831561143b5760009083825281602052604082205490838210611409575091604082827fddf252ad1be2c89b69c2b068fc378daa952ba7f163c4a11628f55a4df523b3ef958760209652828652038282205586815220818154019055604051908152a3565b60405163391434e360e21b81526001600160a01b03919091166004820152602481019190915260448101839052606490fd5b60405163ec442f0560e01b815260006004820152602490fd5b60025480611460575090565b61146d90611476926111a1565b600754906111b4565b9056fea26469706673582212202323ed674888663d09e94c66b4ddc9bbe55d9893e7d21355803ee0f20f42ab9364736f6c63430008190033","linkReferences":{}},"methodIdentifiers":{"MAX_LEVERAGE()":"9b45ec97","Orderbook()":"a1b8a28c","allowance(address,address)":"dd62ed3e","approve(address,uint256)":"095ea7b3","balanceOf(address)":"70a08231","balances(address)":"27e235e3","burn(uint256)":"42966c68","burnFrom(address,uint256)":"79cc6790","calculateWithdrawAmount(uint256)":"fde6c9fb","decimals()":"313ce567","distributeRewards()":"6f4a2cd0","getAvailableLiquidity()":"9b745aec","leveragedLiquidity(address)":"3c7181a1","name()":"06fdde03","provideLiquidity(uint256,uint256)":"7a16af7f","rewards(address)":"0700037d","setOrderBookAddress(address)":"e65c75f5","symbol()":"95d89b41","totalLiquidity()":"15770f92","totalSupply()":"18160ddd","tradeWithOrderBook(uint256,uint256)":"b1321d0d","tradingToken()":"2ad8a220","transfer(address,uint256)":"a9059cbb","transferFrom(address,address,uint256)":"23b872dd","withdrawLiquidity(uint256)":"0a861f2a"},"id":31}