{"abi":[{"type":"constructor","inputs":[{"name":"_collateralToken","type":"address","internalType":"address"},{"name":"_liquidityPool","type":"address","internalType":"address"},{"name":"_priceOracle","type":"address","internalType":"address"}],"stateMutability":"nonpayable"},{"type":"function","name":"applyFundingRate","inputs":[{"name":"traders","type":"address[]","internalType":"address[]"},{"name":"assets","type":"address[]","internalType":"address[]"},{"name":"positionIds","type":"uint256[]","internalType":"uint256[]"},{"name":"adjustments","type":"int256[]","internalType":"int256[]"}],"outputs":[],"stateMutability":"nonpayable"},{"type":"function","name":"assetToCollateral","inputs":[{"name":"asset","type":"address","internalType":"address"},{"name":"assetAmount","type":"uint256","internalType":"uint256"}],"outputs":[{"name":"","type":"uint256","internalType":"uint256"}],"stateMutability":"view"},{"type":"function","name":"autoDeleverage","inputs":[{"name":"traders","type":"address[]","internalType":"address[]"},{"name":"assets","type":"address[]","internalType":"address[]"},{"name":"positionIds","type":"uint256[]","internalType":"uint256[]"},{"name":"reductionAmounts","type":"uint256[]","internalType":"uint256[]"}],"outputs":[],"stateMutability":"nonpayable"},{"type":"function","name":"autoDeleverageThreshold","inputs":[],"outputs":[{"name":"","type":"uint256","internalType":"uint256"}],"stateMutability":"view"},{"type":"function","name":"cancelOrder","inputs":[{"name":"asset","type":"address","internalType":"address"},{"name":"orderId","type":"uint256","internalType":"uint256"}],"outputs":[],"stateMutability":"nonpayable"},{"type":"function","name":"closePosition","inputs":[{"name":"asset","type":"address","internalType":"address"},{"name":"positionId","type":"uint256","internalType":"uint256"}],"outputs":[],"stateMutability":"nonpayable"},{"type":"function","name":"collateralToken","inputs":[],"outputs":[{"name":"","type":"address","internalType":"contract IERC20"}],"stateMutability":"view"},{"type":"function","name":"deposit","inputs":[{"name":"amount","type":"uint256","internalType":"uint256"}],"outputs":[],"stateMutability":"nonpayable"},{"type":"function","name":"executeStopLossOrTakeProfit","inputs":[{"name":"trader","type":"address","internalType":"address"},{"name":"asset","type":"address","internalType":"address"},{"name":"orderId","type":"uint256","internalType":"uint256"},{"name":"executionPrice","type":"uint256","internalType":"uint256"},{"name":"isStopLoss","type":"bool","internalType":"bool"}],"outputs":[],"stateMutability":"nonpayable"},{"type":"function","name":"getBuyOrdersCount","inputs":[{"name":"asset","type":"address","internalType":"address"}],"outputs":[{"name":"","type":"uint256","internalType":"uint256"}],"stateMutability":"view"},{"type":"function","name":"getLatestPrice","inputs":[{"name":"asset","type":"address","internalType":"address"}],"outputs":[{"name":"","type":"uint256","internalType":"uint256"}],"stateMutability":"view"},{"type":"function","name":"getMarginLevel","inputs":[{"name":"user","type":"address","internalType":"address"},{"name":"asset","type":"address","internalType":"address"},{"name":"positionId","type":"uint256","internalType":"uint256"}],"outputs":[{"name":"","type":"uint256","internalType":"uint256"}],"stateMutability":"view"},{"type":"function","name":"getOrder","inputs":[{"name":"asset","type":"address","internalType":"address"},{"name":"orderId","type":"uint256","internalType":"uint256"}],"outputs":[{"name":"","type":"tuple","internalType":"struct OrderBook.Order","components":[{"name":"price","type":"uint256","internalType":"uint256"},{"name":"stopLossPrice","type":"uint256","internalType":"uint256"},{"name":"takeProfitPrice","type":"uint256","internalType":"uint256"},{"name":"amount","type":"uint256","internalType":"uint256"},{"name":"filled","type":"uint256","internalType":"uint256"},{"name":"trader","type":"address","internalType":"address"},{"name":"isBuyOrder","type":"bool","internalType":"bool"},{"name":"orderType","type":"uint8","internalType":"enum OrderBook.OrderType"},{"name":"isFilled","type":"bool","internalType":"bool"},{"name":"expiration","type":"uint256","internalType":"uint256"},{"name":"leverage","type":"uint256","internalType":"uint256"},{"name":"marginType","type":"uint8","internalType":"enum OrderBook.MarginType"},{"name":"asset","type":"address","internalType":"address"}]}],"stateMutability":"view"},{"type":"function","name":"getSellOrdersCount","inputs":[{"name":"asset","type":"address","internalType":"address"}],"outputs":[{"name":"","type":"uint256","internalType":"uint256"}],"stateMutability":"view"},{"type":"function","name":"getUserBalance","inputs":[{"name":"user","type":"address","internalType":"address"}],"outputs":[{"name":"","type":"uint256","internalType":"uint256"}],"stateMutability":"view"},{"type":"function","name":"getUserPositions","inputs":[{"name":"user","type":"address","internalType":"address"},{"name":"asset","type":"address","internalType":"address"}],"outputs":[{"name":"","type":"uint256[]","internalType":"uint256[]"},{"name":"","type":"tuple[]","internalType":"struct OrderBook.Position[]","components":[{"name":"size","type":"uint256","internalType":"uint256"},{"name":"entryPrice","type":"uint256","internalType":"uint256"},{"name":"isLong","type":"bool","internalType":"bool"},{"name":"leverage","type":"uint256","internalType":"uint256"},{"name":"collateral","type":"uint256","internalType":"uint256"},{"name":"marginType","type":"uint8","internalType":"enum OrderBook.MarginType"},{"name":"asset","type":"address","internalType":"address"}]}],"stateMutability":"view"},{"type":"function","name":"insuranceFund","inputs":[],"outputs":[{"name":"","type":"uint256","internalType":"uint256"}],"stateMutability":"view"},{"type":"function","name":"liquidatePosition","inputs":[{"name":"trader","type":"address","internalType":"address"},{"name":"asset","type":"address","internalType":"address"},{"name":"positionId","type":"uint256","internalType":"uint256"}],"outputs":[],"stateMutability":"nonpayable"},{"type":"function","name":"liquidationThreshold","inputs":[],"outputs":[{"name":"","type":"uint256","internalType":"uint256"}],"stateMutability":"view"},{"type":"function","name":"liquidityPool","inputs":[],"outputs":[{"name":"","type":"address","internalType":"contract ILiquidityPool"}],"stateMutability":"view"},{"type":"function","name":"orders","inputs":[{"name":"","type":"address","internalType":"address"},{"name":"","type":"uint256","internalType":"uint256"}],"outputs":[{"name":"price","type":"uint256","internalType":"uint256"},{"name":"stopLossPrice","type":"uint256","internalType":"uint256"},{"name":"takeProfitPrice","type":"uint256","internalType":"uint256"},{"name":"amount","type":"uint256","internalType":"uint256"},{"name":"filled","type":"uint256","internalType":"uint256"},{"name":"trader","type":"address","internalType":"address"},{"name":"isBuyOrder","type":"bool","internalType":"bool"},{"name":"orderType","type":"uint8","internalType":"enum OrderBook.OrderType"},{"name":"isFilled","type":"bool","internalType":"bool"},{"name":"expiration","type":"uint256","internalType":"uint256"},{"name":"leverage","type":"uint256","internalType":"uint256"},{"name":"marginType","type":"uint8","internalType":"enum OrderBook.MarginType"},{"name":"asset","type":"address","internalType":"address"}],"stateMutability":"view"},{"type":"function","name":"owner","inputs":[],"outputs":[{"name":"","type":"address","internalType":"address"}],"stateMutability":"view"},{"type":"function","name":"placeLimitOrder","inputs":[{"name":"asset","type":"address","internalType":"address"},{"name":"price","type":"uint256","internalType":"uint256"},{"name":"stopLossPrice","type":"uint256","internalType":"uint256"},{"name":"takeProfitPrice","type":"uint256","internalType":"uint256"},{"name":"amount","type":"uint256","internalType":"uint256"},{"name":"isBuyOrder","type":"bool","internalType":"bool"},{"name":"expiration","type":"uint256","internalType":"uint256"},{"name":"leverage","type":"uint256","internalType":"uint256"},{"name":"marginType","type":"uint8","internalType":"enum OrderBook.MarginType"}],"outputs":[{"name":"orderId","type":"uint256","internalType":"uint256"}],"stateMutability":"nonpayable"},{"type":"function","name":"placeMarketOrder","inputs":[{"name":"asset","type":"address","internalType":"address"},{"name":"amount","type":"uint256","internalType":"uint256"},{"name":"isBuyOrder","type":"bool","internalType":"bool"},{"name":"leverage","type":"uint256","internalType":"uint256"},{"name":"marginType","type":"uint8","internalType":"enum OrderBook.MarginType"}],"outputs":[{"name":"","type":"uint256","internalType":"uint256"}],"stateMutability":"nonpayable"},{"type":"function","name":"positions","inputs":[{"name":"","type":"address","internalType":"address"},{"name":"","type":"address","internalType":"address"},{"name":"","type":"uint256","internalType":"uint256"}],"outputs":[{"name":"size","type":"uint256","internalType":"uint256"},{"name":"entryPrice","type":"uint256","internalType":"uint256"},{"name":"isLong","type":"bool","internalType":"bool"},{"name":"leverage","type":"uint256","internalType":"uint256"},{"name":"collateral","type":"uint256","internalType":"uint256"},{"name":"marginType","type":"uint8","internalType":"enum OrderBook.MarginType"},{"name":"asset","type":"address","internalType":"address"}],"stateMutability":"view"},{"type":"function","name":"priceOracle","inputs":[],"outputs":[{"name":"","type":"address","internalType":"contract AggregatorV3Interface"}],"stateMutability":"view"},{"type":"function","name":"priceOracles","inputs":[{"name":"","type":"address","internalType":"address"}],"outputs":[{"name":"","type":"address","internalType":"contract AggregatorV3Interface"}],"stateMutability":"view"},{"type":"function","name":"renounceOwnership","inputs":[],"outputs":[],"stateMutability":"nonpayable"},{"type":"function","name":"setAutoDeleverageThreshold","inputs":[{"name":"newThreshold","type":"uint256","internalType":"uint256"}],"outputs":[],"stateMutability":"nonpayable"},{"type":"function","name":"setLiquidationThreshold","inputs":[{"name":"newThreshold","type":"uint256","internalType":"uint256"}],"outputs":[],"stateMutability":"nonpayable"},{"type":"function","name":"totalLongVolume","inputs":[{"name":"","type":"address","internalType":"address"}],"outputs":[{"name":"","type":"uint256","internalType":"uint256"}],"stateMutability":"view"},{"type":"function","name":"totalShortVolume","inputs":[{"name":"","type":"address","internalType":"address"}],"outputs":[{"name":"","type":"uint256","internalType":"uint256"}],"stateMutability":"view"},{"type":"function","name":"transferOwnership","inputs":[{"name":"newOwner","type":"address","internalType":"address"}],"outputs":[],"stateMutability":"nonpayable"},{"type":"function","name":"userBalances","inputs":[{"name":"","type":"address","internalType":"address"}],"outputs":[{"name":"","type":"uint256","internalType":"uint256"}],"stateMutability":"view"},{"type":"function","name":"withdraw","inputs":[{"name":"amount","type":"uint256","internalType":"uint256"}],"outputs":[],"stateMutability":"nonpayable"},{"type":"function","name":"withdrawInsuranceFund","inputs":[{"name":"amount","type":"uint256","internalType":"uint256"}],"outputs":[],"stateMutability":"nonpayable"},{"type":"event","name":"AutoDeleveraged","inputs":[{"name":"positionId","type":"uint256","indexed":false,"internalType":"uint256"},{"name":"reductionAmount","type":"uint256","indexed":false,"internalType":"uint256"},{"name":"asset","type":"address","indexed":true,"internalType":"address"}],"anonymous":false},{"type":"event","name":"Deposit","inputs":[{"name":"user","type":"address","indexed":true,"internalType":"address"},{"name":"amount","type":"uint256","indexed":false,"internalType":"uint256"}],"anonymous":false},{"type":"event","name":"FundingRateApplied","inputs":[{"name":"positionId","type":"uint256","indexed":false,"internalType":"uint256"},{"name":"adjustment","type":"int256","indexed":false,"internalType":"int256"},{"name":"asset","type":"address","indexed":true,"internalType":"address"}],"anonymous":false},{"type":"event","name":"OrderCancelled","inputs":[{"name":"orderId","type":"uint256","indexed":false,"internalType":"uint256"},{"name":"trader","type":"address","indexed":false,"internalType":"address"},{"name":"isBuyOrder","type":"bool","indexed":false,"internalType":"bool"},{"name":"remainingAmount","type":"uint256","indexed":false,"internalType":"uint256"},{"name":"asset","type":"address","indexed":true,"internalType":"address"}],"anonymous":false},{"type":"event","name":"OrderFilledByLiquidityPool","inputs":[{"name":"orderId","type":"uint256","indexed":false,"internalType":"uint256"},{"name":"filledAmount","type":"uint256","indexed":false,"internalType":"uint256"},{"name":"executionPrice","type":"uint256","indexed":false,"internalType":"uint256"},{"name":"asset","type":"address","indexed":false,"internalType":"address"}],"anonymous":false},{"type":"event","name":"OrderMatched","inputs":[{"name":"buyOrderId","type":"uint256","indexed":false,"internalType":"uint256"},{"name":"sellOrderId","type":"uint256","indexed":false,"internalType":"uint256"},{"name":"matchedAmount","type":"uint256","indexed":false,"internalType":"uint256"},{"name":"price","type":"uint256","indexed":false,"internalType":"uint256"},{"name":"asset","type":"address","indexed":true,"internalType":"address"}],"anonymous":false},{"type":"event","name":"OrderPlaced","inputs":[{"name":"orderId","type":"uint256","indexed":false,"internalType":"uint256"},{"name":"trader","type":"address","indexed":true,"internalType":"address"},{"name":"orderType","type":"uint8","indexed":false,"internalType":"enum OrderBook.OrderType"},{"name":"price","type":"uint256","indexed":false,"internalType":"uint256"},{"name":"amount","type":"uint256","indexed":false,"internalType":"uint256"},{"name":"stopLossPrice","type":"uint256","indexed":false,"internalType":"uint256"},{"name":"takeProfitPrice","type":"uint256","indexed":false,"internalType":"uint256"},{"name":"expiration","type":"uint256","indexed":false,"internalType":"uint256"},{"name":"asset","type":"address","indexed":true,"internalType":"address"}],"anonymous":false},{"type":"event","name":"OwnershipTransferred","inputs":[{"name":"previousOwner","type":"address","indexed":true,"internalType":"address"},{"name":"newOwner","type":"address","indexed":true,"internalType":"address"}],"anonymous":false},{"type":"event","name":"PositionClosed","inputs":[{"name":"trader","type":"address","indexed":false,"internalType":"address"},{"name":"orderId","type":"uint256","indexed":false,"internalType":"uint256"},{"name":"closeAmount","type":"uint256","indexed":false,"internalType":"uint256"},{"name":"executionPrice","type":"uint256","indexed":false,"internalType":"uint256"},{"name":"pnl","type":"int256","indexed":false,"internalType":"int256"},{"name":"asset","type":"address","indexed":true,"internalType":"address"}],"anonymous":false},{"type":"event","name":"PositionLiquidated","inputs":[{"name":"trader","type":"address","indexed":true,"internalType":"address"},{"name":"positionId","type":"uint256","indexed":true,"internalType":"uint256"},{"name":"amount","type":"uint256","indexed":false,"internalType":"uint256"},{"name":"price","type":"uint256","indexed":false,"internalType":"uint256"},{"name":"asset","type":"address","indexed":true,"internalType":"address"}],"anonymous":false},{"type":"event","name":"PositionUpdated","inputs":[{"name":"trader","type":"address","indexed":true,"internalType":"address"},{"name":"positionId","type":"uint256","indexed":true,"internalType":"uint256"},{"name":"size","type":"uint256","indexed":false,"internalType":"uint256"},{"name":"entryPrice","type":"uint256","indexed":false,"internalType":"uint256"},{"name":"isLong","type":"bool","indexed":false,"internalType":"bool"},{"name":"leverage","type":"uint256","indexed":false,"internalType":"uint256"},{"name":"margin","type":"uint256","indexed":false,"internalType":"uint256"},{"name":"marginType","type":"uint8","indexed":false,"internalType":"enum OrderBook.MarginType"},{"name":"asset","type":"address","indexed":true,"internalType":"address"}],"anonymous":false},{"type":"event","name":"Withdraw","inputs":[{"name":"user","type":"address","indexed":true,"internalType":"address"},{"name":"amount","type":"uint256","indexed":false,"internalType":"uint256"}],"anonymous":false},{"type":"error","name":"ExpirationOver","inputs":[{"name":"expiration","type":"uint256","internalType":"uint256"},{"name":"currentTime","type":"uint256","internalType":"uint256"}]},{"type":"error","name":"OrderAlreadyFilled","inputs":[]},{"type":"error","name":"OrderNotFound","inputs":[]},{"type":"error","name":"OwnableInvalidOwner","inputs":[{"name":"owner","type":"address","internalType":"address"}]},{"type":"error","name":"OwnableUnauthorizedAccount","inputs":[{"name":"account","type":"address","internalType":"address"}]},{"type":"error","name":"PositionNotFound","inputs":[]},{"type":"error","name":"ReentrancyGuardReentrantCall","inputs":[]},{"type":"error","name":"UnauthorizedCancellation","inputs":[]},{"type":"error","name":"UnauthorizedClosing","inputs":[]},{"type":"error","name":"UnderPricedStopLoss","inputs":[{"name":"stopLossPrice","type":"uint256","internalType":"uint256"},{"name":"currentPrice","type":"uint256","internalType":"uint256"}]}],"bytecode":{"object":"0x60803461010657601f61492038819003918201601f19168301916001600160401b0383118484101761010b578084926060946040528339810103126101065761004781610121565b61005f604061005860208501610121565b9301610121565b91600160005533156100ed5760018054336001600160a01b031980831682179093556040519592946001600160a01b03948593909284929183167f8be0079c531659141344cd1fd0a4f28419497f9722a3daafe3b4186f6b6457e0600080a360326011551685600254161760025516836003541617600355169060045416176004556147ea90816101368239f35b604051631e4fbdf760e01b815260006004820152602490fd5b600080fd5b634e487b7160e01b600052604160045260246000fd5b51906001600160a01b03821682036101065756fe6101c080604052600436101561001457600080fd5b60003560e01c90816301374518146133af5750806316345f181461339157806319a9b3871461333b5780631aa2b2341461331d5780631e1fd1c1146130e3578063233bbd06146130a957806326224c641461306f5780632630c12f146130465780632e1a7d4d14612f6c578063337a60cd146127a5578063380090861461232d5780634031234c1461230f57806347734892146122ce5780634c90c20a146122785780635979d7c414611b7a578063665a11ca14611b515780636a206137146119a6578063715018a61461194957806372e03ceb1461190a578063742fe1f814611661578063793b8c6d14611573578063817cec9a146110925780638da5cb5b1461106957806395c0009414610fcb578063b2016bd414610fa2578063b6b55f2514610ebf578063b790230314610ea1578063bb72718e14610e80578063c6065e5614610c04578063d0b0c81614610bc6578063d5a3a4ef14610b86578063d7b648da14610a6e578063edb2584114610864578063f2fde38b146107d6578063fce693031461079c5763ffc8c837146101ac57600080fd5b346107975760a0366003190112610797576101c56133e7565b6101cd6133fd565b60843580151503610797576101e0613b3d565b60018060a01b038082166000526007602052604060002060443560005260205260406000209080600583015416818516036107465760038201541561070a578084166000526006602052604060002081841660005260205260406000206044356000526020526040600020805480156000146104b657505060038201549260009261026c8154866135c9565b94600782015494670de0b6b3a7640000958681029681880414901517156104a0576102ba6080967f810cbcfae830f9e5e5fbf811bf399e25a31b80d0a39472d2e12714a2e9784b5b9861384d565b85891660005260056020526102d560406000209182546138fa565b90555b600583015460a01c60ff16156104625784841660005260086020526103036044356040600020613fbe565b915050610442575b848416600052600a6020526103266044356040600020613fbe565b915050610422575b848416600052600b6020526103496044356040600020613fbe565b915050610402575b8484166000526007602052604060002060443560005260205261037760406000206139b7565b604051918589168352604435602084015260408301526064356060830152858201527fac6a591ab7dafd4735df79bd8533271940e3ccfd47a58bf9c16db95395af0a2260a085851692a26103e060ff600583015460a01c169160046003820154910154906135a2565b90836040519760443589521660208801521515604087015260608601521692a2005b848416600052600b60205261041d6044356040600020613c5e565b610351565b848416600052600a60205261043d6044356040600020613c5e565b61032e565b848416600052600860205261045d6044356040600020613c5e565b61030b565b848416600052600960205261047d6044356040600020613fbe565b9150501561030b57848416600052600960205261045d6044356040600020613c5e565b634e487b7160e01b600052601160045260246000fd5b93909260046104cf6064356104ca8761374b565b613b8c565b9460008613156106d457848816600052600560205260406000206104f48782546138fa565b90555b0154838716600052600560205261051460406000209182546138fa565b9055828616600052600660205260406000208383166000526020526040600020604435600052602052610569604060002060056000918281558260018201558260028201558260038201558260048201550155565b60005b838716600052600f60205260406000208484166000526020526040600020548110156106a957838716600052600f60205260406000208484166000526020526105b98160406000206138e2565b60443591549060031b1c146105d05760010161056c565b8387166000908152600f60209081526040808320868816845290915290208054919690959091600019810181106104a0577f810cbcfae830f9e5e5fbf811bf399e25a31b80d0a39472d2e12714a2e9784b5b9761066561063a60809961067e9460001901906138e2565b90549060031b1c91888c16600052600f602052604060002089891660005260205260406000206138e2565b90919082549060031b91821b91600019901b1916179055565b848816600052600f60205260406000208585166000526020526106a46040600020613907565b6102d8565b507f810cbcfae830f9e5e5fbf811bf399e25a31b80d0a39472d2e12714a2e9784b5b946080946102d8565b60008612156104f7576106e6866138d1565b6106fb838301918254808211610702576135a2565b90556104f7565b9050806135a2565b60405162461bcd60e51b815260206004820152601460248201527313dc99195c88191bd95cc81b9bdd08195e1a5cdd60621b6044820152606490fd5b60405162461bcd60e51b815260206004820152602360248201527f4f7264657220646f6573206e6f742062656c6f6e6720746f20746865207472616044820152623232b960e91b6064820152608490fd5b600080fd5b34610797576020366003190112610797576001600160a01b036107bd6133e7565b16600052600c6020526020604060002054604051908152f35b34610797576020366003190112610797576107ef6133e7565b6107f7613b3d565b6001600160a01b0390811690811561084b57600154826bffffffffffffffffffffffff60a01b821617600155167f8be0079c531659141344cd1fd0a4f28419497f9722a3daafe3b4186f6b6457e0600080a3005b604051631e4fbdf760e01b815260006004820152602490fd5b346107975760403660031901126107975761087d6133e7565b600061018060405161088e8161354c565b8281528260208201528260408201528260608201528260808201528260a08201528260c08201528260e082015282610100820152826101208201528261014082015282610160820152015260018060a01b0316600052600760205260406000206024356000526020526101a0604060002060086040519161090e8361354c565b805483526001810154602084015260028101546040840152600381015460608401526004810154608084015260ff600582015460018060a01b03811660a0860152818160a01c16151560c0860152818160a81c1661096b81613413565b60e086015260b01c1615156101008401526006810154610120840152600781015461014084015201546109a060ff8216613413565b60ff811661016083015260018060a01b039060081c1661018082015260405190805182526020810151602083015260408101516040830152606081015160608301526080810151608083015260018060a01b0360a08201511660a083015260c0810151151560c083015260e0810151610a1881613413565b60e08301526101008101511515610100830152610120810151610120830152610140810151610140830152610160810151610a5281613413565b610160830152610180908101516001600160a01b031690820152f35b3461079757602036600319011261079757600435610a8a613b3d565b601054808211610b415781610aa4610ae8936020936135a2565b60105560025460015460405163a9059cbb60e01b81526001600160a01b03918216600482015260248101939093529193849290911690829060009082906044820190565b03925af18015610b3557610b0491600091610b06575b5061380f565b005b610b28915060203d602011610b2e575b610b208183613569565b8101906137f7565b82610afe565b503d610b16565b6040513d6000823e3d90fd5b60405162461bcd60e51b815260206004820152601b60248201527f496e73756666696369656e7420696e737572616e63652066756e6400000000006044820152606490fd5b34610797576040366003190112610797576020670de0b6b3a7640000610bbd610bb5610bb06133e7565b6135dc565b6024356135c9565b04604051908152f35b3461079757602036600319011261079757600435610be2613b3d565b80151580610bf9575b610bf4906139ed565b601155005b506064811115610beb565b3461079757610c1236613499565b93909496610c21939293613b3d565b81871480610e77575b80610e6e575b610c3990613947565b60005b848110610c4557005b610c58610c53828a85613993565b6139a3565b90610c67610c5382868d613993565b9160018060a01b03808216600052600660205260406000208185166000526020526040600020610c98848a8a613993565b3560005260205289604060002091610cb3858c855494613993565b358210610e295785610d79868d8f97828f8f88610d729460019f9c858f9d7f14345b8d61c1dbebb884a466f890d522f60fb9abc6a8f329c5dd40812385cf8c9f60409f610d0c610d038d936135dc565b6104ca8761374b565b9060048601610d54815495610d4b610d3882610d33610d2c8c8b8a613993565b358b6135c9565b61384d565b91610d448a8988613993565b35906135a2565b96878a556135a2565b905560008213610deb575b50505050505415610d8d575b5050613993565b3597613993565b35835195865260208601521692a201610c3c565b1660005260066020528960002089891660005260205289600020610db2848484613993565b35600052602052610de48a60002060056000918281558260018201558260028201558260038201558260048201550155565b8838610d6b565b610e0394610d3393610dfc92613993565b35906135c9565b8383166000526005602052610e1d8e6000209182546138fa565b9055858f893882610d5f565b60405162461bcd60e51b815260206004820152601860248201527f496e76616c696420726564756374696f6e20616d6f756e7400000000000000006044820152606490fd5b50838514610c30565b50838214610c2a565b34610797576020610e99610e9336613433565b91613a2d565b604051908152f35b34610797576000366003190112610797576020601054604051908152f35b346107975760208060031936011261079757600060043591610edf613b1a565b6002546040516323b872dd60e01b81523360048201523060248201526044810185905292829184916064918391906001600160a01b03165af1918215610b35577fe1fffcc4923d04b559f4d29a8bfc6cda04eb5b0d3c460751c2402c5c5cc9109c92610f5291600091610f85575061380f565b610f5b836135af565b3360005260058252610f7360406000209182546138fa565b90556040519283523392a26001600055005b610f9c9150833d8511610b2e57610b208183613569565b85610afe565b34610797576000366003190112610797576002546040516001600160a01b039091168152602090f35b346107975760e0610fdb36613433565b9060018060a01b0380931660005260066020528260406000209116600052602052604060002090600052602052604060002090815491600181015460ff600283015416916003810154600560048301549201549360ff8516936040519788526020880152151560408701526060860152608085015261105981613413565b60a084015260081c1660c0820152f35b34610797576000366003190112610797576001546040516001600160a01b039091168152602090f35b346107975760a0366003190112610797576110ab6133e7565b6044351515604435036107975760026084351015610797576110cb613b1a565b6110d4816135dc565b604051606083901b6bffffffffffffffffffffffff191660208201908152603482018390524260548301529061111781607481015b03601f198101835282613569565b51902090611127816024356135c9565b670de0b6b3a76400008060643502906064358204146064351517156104a05761114f9161384d565b3360005260056020526111698160406000205410156137b4565b33600052600560205261118260406000209182546135a2565b905560405190828252600060208301526040820152602435606082015260006080820152600060a0820152600060c082015260018060a01b038316907f3dabad0d6d4e5e185d73e1a6bb793d77dccbf4efa2d8a1f11585e5f71c5ed21360e03392a360243591825b61135e575b82611205575b6020826001600055604051908152f35b6003546001600160a01b03169283156113205760409060a4611226846135dc565b9160008451978894859363e5fce16360e01b855260018060a01b038916600486015289602486015260448501526044351515606485015260848401525af18015610b3557600080916112e7575b6020945080611284575b50506111f5565b7f725778b1829112adefcd2bec483d6417d412e11ef1c966085f39db4ffeccf50a926080926112bf60843560643560443584878b8833613cbd565b60408051878152888101949094528301526001600160a01b03166060820152a182808061127d565b50506040833d604011611318575b8161130260409383613569565b8101031261079757825160209384015190611273565b3d91506112f5565b60405162461bcd60e51b8152602060048201526016602482015275131a5c5d5a591a5d1e481c1bdbdb081b9bdd081cd95d60521b6044820152606490fd5b6044351561154d576001600160a01b038116600090815260096020526040902061138790613f78565b8015611547579261139a6113e694613c96565b60018060a01b038316600052600760205260406000208160005260205260406000206003810154926113d1600483015480956135a2565b81811015611539576113ee90978880936135a2565b9788956138fa565b600483015561140a6084356064356044358554858b8b33613cbd565b61143960018060a01b0360058401541683549060078501549060ff6008870154169285888b6044351594613cbd565b604435156115235760008051602061479583398151915286915b6044351561151d57845b84546040805195865260208601929092529084019190915260608301526001600160a01b03861691608090a2600360048201549101541461149f575b506111ea565b9050604435156114f95760018060a01b03821660005260096020526114c8816040600020613c5e565b60018060a01b0382166000526007602052604060002090600052602052826114f360406000206139b7565b84611499565b60018060a01b0382166000526008602052611518816040600020613c5e565b6114c8565b8761145d565b6000805160206147958339815191528391611453565b506113ee81978880936135a2565b506111ef565b6001600160a01b038116600090815260086020526040902061156e90613f24565b611387565b34610797576040366003190112610797576101a061158f6133e7565b60018060a01b03809116600052600760205260406000206024356000526020526040600020908154916001810154600282015491600381015460ff6004830154600584015490828260a81c16906006860154946008600788015497015498858a16986040519c8d5260208d015260408c015260608b015260808a015287821660a08a0152828260a01c16151560c08a015261162981613413565b60e089015260b01c16151561010087015261012086015261014085015261164f81613413565b61016084015260081c16610180820152f35b346107975760403660031901126107975761167a6133e7565b6024803590611687613b1a565b336000526020906006825260406000209360018060a01b0381169485600052835260406000208460005283526040600020908154156118f8576116cc6116d5916135dc565b6104ca8361374b565b60008113156118c25733600052600584526116f660406000209182546138fa565b90555b6004810154336000526005845261171660406000209182546138fa565b9055600281015460ff16156118a2575484600052600c835261173e60406000209182546135a2565b90555b33600052600682526040600020846000528252604060002083600052825261178b604060002060056000918281558260018201558260028201558260038201558260048201550155565b60005b33600052600f808452604060002086600052845260406000205482101561189757336000528084526040600020866000528452846117d08360406000206138e2565b919054600392831b1c146117e857505060010161178e565b919290939450336000528385526040600020866000528552604060002033600052848652604060002087600052865260406000205491600019830192831161188357509161183d6106659261185f95946138e2565b9054911b1c9133600052848652604060002087600052865260406000206138e2565b3360005281526040600020916000525261187c6040600020613907565b6001600055005b634e487b7160e01b60009081526011600452fd5b50505050505061187c565b5484600052600d83526118bb60406000209182546135a2565b9055611741565b600081126118d1575b506116f9565b6118da906138d1565b6118f060048301918254808211610702576135a2565b9055856118cb565b604051636ec9be1160e01b8152600490fd5b3461079757602036600319011261079757600435611926613b3d565b60115481118061193f575b61193a906139ed565b601255005b5060648110611931565b3461079757600036600319011261079757611962613b3d565b600180546001600160a01b031981169091556000906001600160a01b03167f8be0079c531659141344cd1fd0a4f28419497f9722a3daafe3b4186f6b6457e08280a3005b34610797576040366003190112610797576119bf6133e7565b602435906119cb613b1a565b60018060a01b0380911680600052602091600783526040600020846000528352604060002060038101548015611b3f5760058201908154933390851603611b2d5760ff8460b01c16611b1b576004830154611a25916135a2565b928315611b1b5760a01c60ff1615611b00578360005260088552611a4d866040600020613c5e565b6007611a5a8354856135c9565b92015491670de0b6b3a7640000928381029381850414901517156104a05760ff92611a849161384d565b3360005260058652611a9c60406000209182546138fa565b90555460a01c1615611ae15781600052600c8352611ac060406000209182546135a2565b90555b600052600781526040600020916000525261187c60406000206139b7565b81600052600d8352611af960406000209182546135a2565b9055611ac3565b8360005260098552611b16866040600020613c5e565b611a4d565b60405163ee3b3d4b60e01b8152600490fd5b6040516371efdd2360e11b8152600490fd5b60405163d36d896560e01b8152600490fd5b34610797576000366003190112610797576003546040516001600160a01b039091168152602090f35b3461079757611b8836613499565b6101205260e0529192611b99613b3d565b8385148061226f575b80612263575b611bb190613947565b60005b838110611bbd57005b611bcb610c5382888a613993565b61016052611bdd610c53828785613993565b61010052611bec818585613993565b3560805260018060a01b036101a0526101a0516101605116600052600660205260406000206101a0516101005116600052602052604060002060805160005260205260406000206000611c45836101205160e051613993565b351315611cc65790600191611c706004611c65846101205160e051613993565b3592019182546138fa565b90555b611c83816101205160e051613993565b3560405190608051825260208201527f89777835ef0b9bbc602f11b5a7c99c7a3cef5327288f4e93771371b3e088351460406101a051610100511692a201611bb4565b611ce8611ce2836101209a979499969a9895985160e051613993565b356138d1565b60048201548181101561224457505050611d00613b3d565b6101a0516101605116600052600660205260406000206101a05161010051166000526020526040600020608051600052602052604060002096875495611d47871515613885565b611d53610100516135dc565b98611d618a6104ca8361374b565b60048201549060008112612212575b50611d96670de0b6b3a7640000611d878d8c6135c9565b046064918291601154906135c9565b048210156121d0575060a0526005015460ff16611db281613413565b15611fdd575b6010611dc760a05182546138fa565b90556101a0516101605116600052600660205260406000206101a05161010051166000526020526040600020608051600052602052611e28604060002060056000918281558260018201558260028201558260038201558260048201550155565b6000610180525b6101a0516101605116600052600f60205260406000206101a0516101005116600052602052604060002054610180511015611fcd576101a0516101605116600052600f60205260406000206101a0516101005116600052602052611e9a6101805160406000206138e2565b90546080519160031b1c14611eb9576001610180510161018052611e2f565b6101a0516101605181166000908152600f6020908152604080832061010051909416835292905220805496999598949793969295919492939190600019850185106104a057611f12611f4f9160019660001901906138e2565b90549060031b1c6101a0516101605116600052600f60205260406000206101a05161010051166000526020526106656101805160406000206138e2565b6101a0516101605116600052600f60205260406000206101a0516101005116600052602052611f816040600020613907565b60405191825260208201526101a051610100511690608051907f7a26cbc8fa7cf38750885a81f3ca780f51a0d2ba2822c9bcc3f3162fa7f0028d60406101a051610160511692a4611c73565b9295600192959897919497611f81565b600060c0526000610140525b6101a0516101605116600052600f60205260406000206101a05161010051166000526020526040600020546101405110156120c1576101a0516101605116600052600f60205260406000206101a05161010051166000526020526120546101405160406000206138e2565b90549060031b1c6080518103612076575b506001610140510161014052611fe9565b6101a0516101605116600052600660205260406000206101a05161010051166000526020526040600020906000526020526120b860406000205460c0516138fa565b60c05289612065565b60c05115611db857949392919060009796975b6101a0516101605116600052600f60205260406000206101a05161010051166000526020526040600020548110156121c2576001906101a0516101605116600052600f60205260406000206101a051610100511660005260205261213c8160406000206138e2565b90549060031b1c6080518103612154575b50016120d4565b6101a0516101605116600052600660205260406000206101a05161010051166000526020526040600020906000526020526121b9604060002060046121a260c051610d33845460a0516135c9565b91016121af8282546138fa565b905560a0516135a2565b60a0528b61214d565b509091929394969596611db8565b60405162461bcd60e51b815260206004820152601d60248201527f506f736974696f6e2063616e6e6f74206265206c6971756964617465640000006044820152fd5b9061221c826138d1565b81111561223b5761222f612235926138d1565b906135a2565b8b611d70565b50506000612235565b61225b600194979a969993926004929996996135a2565b910155611c73565b50610120518314611ba8565b50828414611ba2565b34610797576020366003190112610797576001600160a01b036122996133e7565b1660005260086020526020610e9960406000206020526801dc27bb5462fdadcb600052637fffffff604060002060201b541690565b34610797576020366003190112610797576001600160a01b036122ef6133e7565b166000526005602052602064e8d4a5100060406000205404604051908152f35b34610797576000366003190112610797576020601154604051908152f35b346107975761233b36613433565b612343613b3d565b60018060a01b0380931680600052600692602060068152604060002095821695866000528152604060002084600052815260406000209061238b825493610bb0851515613885565b91612399836104ca8361374b565b9660048201549760008112612777575b50670de0b6b3a76400006123bd85876135c9565b049760646123d060119a601154906135c9565b0481101561273257600560ff91930154166123ea81613413565b156125b0575b506123fd906010546138fa565b60105583600052600681526040600020876000528152604060002085600052815261244a604060002060056000918281558260018201558260028201558260038201558260048201550155565b60005b84600052600f808352604060002089600052835260406000205482101561257f578560005280835260406000208960005283528661248f8360406000206138e2565b919054600392831b1c146124a757505060010161244d565b909293949596978760005283855260406000208a600052855260406000208860005284865260406000208b600052865260406000205491600019830192831161256b5750926106656040979593612524612544947f7a26cbc8fa7cf38750885a81f3ca780f51a0d2ba2822c9bcc3f3162fa7f0028d9b99976138e2565b9054911b1c918a600052848652886000208d6000528652886000206138e2565b8660005281528360002088600052815261256084600020613907565b8351928352820152a4005b634e487b7160e01b60005260045260246000fd5b50507f7a26cbc8fa7cf38750885a81f3ca780f51a0d2ba2822c9bcc3f3162fa7f0028d939495509060409291612560565b90979192966000969495969560005b88600052600f808752604060002086600052875260406000205482101561264f5789600052865260406000208560005286526125ff8160406000206138e2565b90549060031b1c878103612617575b506001016125bf565b60019198612648918b60005286895260406000208860005289526040600020906000528852604060002054906138fa565b979061260e565b505094969590979392989181612666575b506123f0565b909596936000999295995b88600052600f80865260406000208560005286526040600020548210156127205789600052855260406000208460005285526126b18160406000206138e2565b90549060031b1c8681036126c9575b50600101612671565b60019197612719918b6000528588526040600020876000528852604060002090600052875260406000209060046127058c610d338554856135c9565b92016127128382546138fa565b90556135a2565b96906126c0565b5050939695505096926123fd89612660565b60405162461bcd60e51b815260048101859052601d60248201527f506f736974696f6e2063616e6e6f74206265206c6971756964617465640000006044820152606490fd5b9097612782826138d1565b81111561279c5761222f612795926138d1565b96896123a9565b50506000612795565b3461079757610120366003190112610797576127bf6133e7565b60a435151560a43503610797576002610104351015610797576127e0613b1a565b4260c4351115612f4c576127f86024356084356135c9565b670de0b6b3a76400009060e4358260e4350204821460e4351517156104a0576128259160e435029061384d565b33600052600560205261283f8160406000205410156137b4565b33600052600560205261285860406000209182546135a2565b9055604051906128678261354c565b6024358252604435602083015260643560408301526084356060830152600060808301523360a083015260a435151560c0830152600160e0830152600061010083015260c43561012083015260e4356101408301526128c861010435613413565b610104356101608301526001600160a01b038116610180830152604051606082901b6bffffffffffffffffffffffff19166020820190815260243560348301524260548301529061291c8160748101611109565b5190209060018060a01b0381166000526007602052604060002082600052602052612a376008604060002085518155602086015160018201556040860151600282015560608601516003820155608086015160048201556005810160018060a01b0360a08801511681549060ff60a01b60c08a0151151560a01b1660e08a0151916129a683613413565b6129af83613413565b60ff60b01b6101008c0151151560b01b169368ffffffffffffffffff60b81b1617179060ff60a81b9060a81b16171790556101208601516006820155610140860151600782015501612a0f610160860151612a0981613413565b8261386d565b6101808501518154610100600160a81b03191660089190911b610100600160a81b0316179055565b60a43515612f035760018060a01b0381166000526008602052612a5e826040600020613f04565b60018060a01b038116600052600c6020526040600020612a8160843582546138fa565b90555b604435612edf575b606435612ebb575b6040805183815260016020820152602435918101919091526084356060820152604435608082015260643560a082015260c43560c08201526001600160a01b0382169033907f3dabad0d6d4e5e185d73e1a6bb793d77dccbf4efa2d8a1f11585e5f71c5ed2139060e090a36084359260018060a01b0382166000526007602052604060002083600052602052836040600020905b612c26575b602094506004810154600382015414612bc3575b5060a090810151604080518581526001602082015260243591810191909152608435606082015260443560808201526064359281019290925260c43560c08301526001600160a01b039283169216907f3dabad0d6d4e5e185d73e1a6bb793d77dccbf4efa2d8a1f11585e5f71c5ed2139060e090a36001600055604051908152f35b600501805460ff60b01b1916600160b01b17905560a43515612c035760018060a01b03821660005260088452612bfd836040600020613c5e565b84612b41565b60018060a01b03821660005260098452612c21836040600020613c5e565b612bfd565b60a43515612e54576001600160a01b0383166000908152600960205260409020612c4f90613f78565b8015612e4e57612c5e90613c96565b9460018060a01b0384166000526007602052604060002086600052602052604060002095602435875411612e4757612cbb965b600381015492612ca6600483015480956135a2565b81811015612e3957612cc390998a80936135a2565b998a956138fa565b6004830155612cd68160048701546138fa565b6004860155612d396008612d0e898b60018060a01b0360058b01541687548760078d0154938d60ff9889910154169560a43594613cbd565b60018060a01b03600585015416908454916007860154916008870154169285888d60a4351594613cbd565b60a43515612e235760008051602061479583398151915288915b60a43515612e1d57845b84546040805195865260208601929092529084019190915260608301526001600160a01b03881691608090a26004600382015491015414612d9f575b50612b28565b905060a43515612df95760018060a01b0384166000526009602052612dc8816040600020613c5e565b60018060a01b038416600052600760205260406000209060005260205284612df360406000206139b7565b86612d99565b60018060a01b0384166000526008602052612e18816040600020613c5e565b612dc8565b89612d5d565b6000805160206147958339815191528391612d53565b50612cc381998a80936135a2565b5050612b2d565b50612b2d565b6001600160a01b0383166000908152600860205260409020612e7590613f24565b8015612e4e57612e8490613c96565b9460018060a01b0384166000526007602052604060002086600052602052604060002095602435875410612e4757612cbb96612c91565b60018060a01b038116600052600b602052612eda826040600020613f04565b612a94565b60018060a01b038116600052600a602052612efe826040600020613f04565b612a8c565b60018060a01b0381166000526009602052612f22826040600020613f04565b60018060a01b038116600052600d6020526040600020612f4560843582546138fa565b9055612a84565b60405163dbf25f0960e01b815260c4356004820152426024820152604490fd5b34610797576020806003193601126107975760043590612f8a613b1a565b612f93826135af565b3360005260058252612fac8160406000205410156137b4565b3360005260058252612fc460406000209182546135a2565b905560025460405163a9059cbb60e01b81523360048201526024810184905291908190839060449082906000906001600160a01b03165af1918215610b35577f884edad9ce6fa2440d8a54cc123490eb96d2768479d49ff9c7366125a94243649261303691600091610f85575061380f565b6040519283523392a26001600055005b34610797576000366003190112610797576004546040516001600160a01b039091168152602090f35b34610797576020366003190112610797576001600160a01b036130906133e7565b1660005260056020526020604060002054604051908152f35b34610797576020366003190112610797576001600160a01b036130ca6133e7565b16600052600d6020526020604060002054604051908152f35b34610797576040366003190112610797576130fc6133e7565b6131046133fd565b9060018060a01b038091169081600052602091600f835281604060002094169384600052835260406000209260405191828383875492838152018097600052846000209260005b868282106133075750505061316292500384613569565b82519361318761317186613709565b9561317f6040519788613569565b808752613709565b601f19018360005b8281106132c05750505060005b84518110156131f9576001908360005260068552604060002089600052855260406000206131ca8288613721565b5160005285526131dd604060002061374b565b6131e78289613721565b526131f28188613721565b500161319c565b5082858588604051936040850192604086525180935260609260608601929060005b8181106132ac57505050848203818601528080855193848152019401926000905b8382106132495786860387f35b90919293948360e0600192885180518252838101518483015260408101511515604083015285810151868301526080808201519083015260a0808201519061329082613413565b83015260c0908101518c1690820152019601949392019061323c565b82518552938301939183019160010161321b565b6040516132cc8161351a565b60008152600083820152600060408201526000606082015260006080820152600060a0820152600060c082015282828a01015201849061318f565b855484526001958601958995509301920161314b565b34610797576000366003190112610797576020601254604051908152f35b34610797576020366003190112610797576001600160a01b0361335c6133e7565b1660005260096020526020610e9960406000206020526801dc27bb5462fdadcb600052637fffffff604060002060201b541690565b34610797576020366003190112610797576020610e99610bb06133e7565b34610797576020366003190112610797576020906001600160a01b03806133d46133e7565b16600052600e8352604060002054168152f35b600435906001600160a01b038216820361079757565b602435906001600160a01b038216820361079757565b6002111561341d57565b634e487b7160e01b600052602160045260246000fd5b6060906003190112610797576001600160a01b0390600435828116810361079757916024359081168103610797579060443590565b9181601f840112156107975782359167ffffffffffffffff8311610797576020808501948460051b01011161079757565b60806003198201126107975767ffffffffffffffff9060043582811161079757816134c691600401613468565b9390939260243581811161079757836134e191600401613468565b9390939260443583811161079757826134fc91600401613468565b939093926064359182116107975761351691600401613468565b9091565b60e0810190811067ffffffffffffffff82111761353657604052565b634e487b7160e01b600052604160045260246000fd5b6101a0810190811067ffffffffffffffff82111761353657604052565b90601f8019910116810190811067ffffffffffffffff82111761353657604052565b519069ffffffffffffffffffff8216820361079757565b919082039182116104a057565b9064e8d4a51000918281029281840414901517156104a057565b818102929181159184041417156104a057565b6001600160a01b039081166000818152600e60205260408120549091908316156136c45760049260a0918352600e60205260408320541660405193848092633fabe5a360e21b82525afa9182156136b7578192613664575b506402540be40091828102928184041490151715613650575090565b634e487b7160e01b81526011600452602490fd5b90915060a0813d60a0116136af575b8161368060a09383613569565b810103126136ab576136918161358b565b506136a360806020830151920161358b565b509038613634565b5080fd5b3d9150613673565b50604051903d90823e3d90fd5b60405162461bcd60e51b815260206004820152601e60248201527f5072696365206f7261636c65206e6f742073657420666f7220617373657400006044820152606490fd5b67ffffffffffffffff81116135365760051b60200190565b80518210156137355760209160051b010190565b634e487b7160e01b600052603260045260246000fd5b906040516137588161351a565b60c060058294805484526001810154602085015260ff600282015416151560408501526003810154606085015260048101546080850152015460ff811661379e81613413565b60a084015260081c6001600160a01b0316910152565b156137bb57565b60405162461bcd60e51b8152602060048201526014602482015273496e73756666696369656e742062616c616e636560601b6044820152606490fd5b90816020910312610797575180151581036107975790565b1561381657565b60405162461bcd60e51b815260206004820152600f60248201526e151c985b9cd9995c8819985a5b1959608a1b6044820152606490fd5b8115613857570490565b634e487b7160e01b600052601260045260246000fd5b9061387781613413565b60ff80198354169116179055565b1561388c57565b60405162461bcd60e51b815260206004820152601760248201527f506f736974696f6e20646f6573206e6f742065786973740000000000000000006044820152606490fd5b600160ff1b81146104a05760000390565b80548210156137355760005260206000200190600090565b919082018092116104a057565b8054908115613931576000199182019161392183836138e2565b909182549160031b1b1916905555565b634e487b7160e01b600052603160045260246000fd5b1561394e57565b60405162461bcd60e51b815260206004820152601860248201527f4172726179206c656e67746873206d757374206d6174636800000000000000006044820152606490fd5b91908110156137355760051b0190565b356001600160a01b03811681036107975790565b60086000918281558260018201558260028201558260038201558260048201558260058201558260068201558260078201550155565b156139f457565b60405162461bcd60e51b8152602060048201526011602482015270125b9d985b1a59081d1a1c995cda1bdb19607a1b6044820152606490fd5b929160018060a01b0380600095168552600660205260408520908316855260205260408420908452602052670de0b6b3a7640000613aa460408520613a79815494610bb0861515613885565b906004613a89836104ca8461374b565b91015487821315613ae65790613a9e916138fa565b936135c9565b04908115613ae25761271090818102918183041490151715613ace57613acb92935061384d565b90565b634e487b7160e01b84526011600452602484fd5b5050565b87821280613b09575b15613b005761222f613a9e926138d1565b505085936135c9565b5080613b14836138d1565b10613aef565b600260005414613b2b576002600055565b604051633ee5aeb560e01b8152600490fd5b6001546001600160a01b03163303613b5157565b60405163118cdaa760e01b8152336004820152602490fd5b818102929160008212600160ff1b8214166104a05781840514901517156104a057565b6020810180516000938181039185138015828413169183121617613ace57613bc781613bd29290604086015115613c4e575b50845190613b69565b606084015190613b69565b9051908115613c3a57600160ff1b8114600019831416613ace57906080910591018051926103e893848102948186051490151715613650575082821315613c1857505090565b909150613c2581516138d1565b8212613c2f575090565b613acb9150516138d1565b634e487b7160e01b84526012600452602484fd5b613c5891506138d1565b38613bbe565b613c7f91613c6b91613fbe565b905091909138600052825460105282614335565b90601051905580613c8d5750565b6000526004601cfd5b908115613cb757815460601c918215613cac5750565b638000000017549150565b60009150565b969592909493919560018060a01b0380981695600091878352602095600687526040978885209b84169b8c865288528885208b8652885288852096613d0281886135c9565b670de0b6b3a764000090818502918583041485151715613ef05790613d269161384d565b9688548015600014613e6e575090613d94959493929189556001890155600288019060ff8019835416911515161790556003870155846004870155613d6f60058701918261386d565b8054610100600160a81b03191660089290921b610100600160a81b0316919091179055565b858152600f8452848120888252845284812080549068010000000000000000821015613e5a57867f8af2a2cf76a4da6497e08f5ec486a15d033a8bf051143d6e0414a6ad473cc139979593613dfa8b61066586613e0a96600160c09d9b990181556138e2565b89815260058652209182546135a2565b905580549260018201549060ff60028401541660038401549260ff600560048701549601541695835197885287015215159085015260608401526080830152613e5281613413565b60a0820152a4565b634e487b7160e01b83526041600452602483fd5b9060c09a989650613e0a95508b997f8af2a2cf76a4da6497e08f5ec486a15d033a8bf051143d6e0414a6ad473cc1399c955080989450610d33600194613ed084613eca613ebe613ed697896138fa565b988996019788546135c9565b926135c9565b906138fa565b9055855560048501613ee98582546138fa565b9055613dfa565b634e487b7160e01b88526011600452602488fd5b613f1182613c7f92613fbe565b9093919338600052845460105284614110565b6020526801dc27bb5462fdadcb600052604060002060201b805460801c80613f50575b80151591170290565b9190915b637fffffff81841754601f1c16908115613f6e5750613f54565b9050919091613f47565b6020526801dc27bb5462fdadcb600052604060002060201b805460801c80613fa35780151591170290565b9190915b637fffffff8184175416908115613f6e5750613fa7565b9190916000916000918415614042576020526801dc27bb5462fdadcb600052604060002060201b93601f600152845460801c90815b613ffb575050565b90809450938086178054918260601c918215614033575b5083821461402c57508211511c637fffffff169081613ff3565b9450505050565b63800000001754915038614012565b63c94f18776000526004601cfd5b91908083179384549384821c91637fffffff938385169787603e1c861693898117998a5495868a1c891692836140f4575b81156140ea571790815490818b1c8a1686146140da57861b9089871b19161790555b637fffffff603e1b93898886637fffffff603e1b1999603e1b1693831b921b1916178616179055851b9516911617911b1916179055565b8a1b90898b1b19161790556140a3565b50506000526140a3565b8084178054637fffffff603e1b1916603e88901b179055614081565b916000909493946142fc5760018060205160801c01637fffffff918282116142ed57608082901b602052603e976001605d1b9563800000009284929190818c1b89178a851784878217846142c7575b50505561425f575b505050505b60005181146142555780851754871c821680861754918286161561423c5782891c8416928388175492601f90818588168214029182189385831c88168b1794855493848c16156141d7575050506001605d1b19928316908a1755169055841781861755945b9461416c565b955095509a9550919050821c85168914614222575b5086881754891c8416871780546001605d1b198116909155891c841680881780548817905561421d92919088614050565b6141d1565b9750908161423561421d93838b8b614050565b90916141ec565b505050509350505b6000511780546001605d1b19169055565b5050935050614244565b80156142b8578817928354918260601c9182156142ad575b50101561429157637fffffff191617905538818180614167565b90601f1b90673fffffff80000000191617905538818180614167565b851754915038614277565b50506000525038818180614167565b6001600160a01b038211156142de5755843861415f565b5060601b90911790843861415f565b5063ed732d0c96505050505050565b5063bb33e6ac93505050565b811561432d571791825490601f637fffffff9183831614150292831b921b1916179055565b505060005250565b9160009160205160801c811161478857801561477c578080851790815480601f1c637fffffff168091637fffffff1602614752575b508286179081549081601f81637fffffff1615021c637fffffff169288603e958582178054637fffffff603e1b871690637fffffff603e1b19161790556143bb8887878a1c637fffffff1685614308565b8388036146df575b505050506001605d1b1615614512575b509091929360205160801c92838217928354928360601c936000948015614501575b859085841790815460601c60009181156144ef575b0361443d575b505050505050506000825561442d575b506000190160801b602052565b6000906380000000175538614420565b83825582036144e1575b505080831c637fffffff1680156144d75782178054601f81637fffffff168a14150290637fffffff87831b921b19161790555b80601f1c637fffffff16806144bd575b50637fffffff1690816144a0575b848180614410565b17918254911b90637fffffff603e1b191617905538808080614498565b82178054637fffffff603e1b191685851b1790553861448a565b508360005261447a565b638000000017558438614447565b9150508163800000001754809161440a565b5063800000008617549450846143f5565b945b60005186146146d55780861754956001605d1b87166146c957637fffffff87841c81168317548082168314601f0281811c9092168085178054919a92906001605d1b8316614673575b505080601f84181c637fffffff168517908154809b82861c637fffffff1693848917548093176001605d1b1615614651576145e49798999a9b9c9d836001605d1b16156145fb575b505093891c637fffffff1688811780548481186001605d1b16909418958a17959095556001605d1b199283169094551690861755601f82189085614050565b811780546001605d1b1916905593929190386143d3565b6001605d1b191690556001605d1b90921788831755506146239150601f841890849088614050565b80861c637fffffff16851754821c637fffffff168086175480841c637fffffff1691828817549038806145a5565b509550509250509297506001605d1b1790871755811c637fffffff1694614514565b6001605d1b199092169091556001605d1b17637fffffff82871c16858117919091559098506146a9908290601f82189086614050565b87841c637fffffff16831754811c637fffffff169788841754388061455d565b909192939495506145e4565b90919293946145e4565b908761470985879a6bffffffffffffffffffffffff969798955494858c1c637fffffff1690614308565b81637fffffff168c17805491891b8092637fffffff603e1b191617905581601f1c637fffffff168c17908154637fffffff603e1b191617905518168518905592388088816143c3565b9095949392505b80851754637fffffff169081156147705750614759565b9293949590503861436a565b5091505063b113638a90565b5091505063ccd52fbc9056fe9c5fe39ee07c6fe17c958b0ca6748f8d73f39038fe59f5460d92a4828433eddca2646970667358221220a0f468ee469d4b65de465046ff84ec6d89fa8aeeb0ded6b15493ac74c8b484c464736f6c63430008190033","linkReferences":{}},"methodIdentifiers":{"applyFundingRate(address[],address[],uint256[],int256[])":"5979d7c4","assetToCollateral(address,uint256)":"d5a3a4ef","autoDeleverage(address[],address[],uint256[],uint256[])":"c6065e56","autoDeleverageThreshold()":"1aa2b234","cancelOrder(address,uint256)":"6a206137","closePosition(address,uint256)":"742fe1f8","collateralToken()":"b2016bd4","deposit(uint256)":"b6b55f25","executeStopLossOrTakeProfit(address,address,uint256,uint256,bool)":"ffc8c837","getBuyOrdersCount(address)":"4c90c20a","getLatestPrice(address)":"16345f18","getMarginLevel(address,address,uint256)":"bb72718e","getOrder(address,uint256)":"edb25841","getSellOrdersCount(address)":"19a9b387","getUserBalance(address)":"47734892","getUserPositions(address,address)":"1e1fd1c1","insuranceFund()":"b7902303","liquidatePosition(address,address,uint256)":"38009086","liquidationThreshold()":"4031234c","liquidityPool()":"665a11ca","orders(address,uint256)":"793b8c6d","owner()":"8da5cb5b","placeLimitOrder(address,uint256,uint256,uint256,uint256,bool,uint256,uint256,uint8)":"337a60cd","placeMarketOrder(address,uint256,bool,uint256,uint8)":"817cec9a","positions(address,address,uint256)":"95c00094","priceOracle()":"2630c12f","priceOracles(address)":"01374518","renounceOwnership()":"715018a6","setAutoDeleverageThreshold(uint256)":"72e03ceb","setLiquidationThreshold(uint256)":"d0b0c816","totalLongVolume(address)":"fce69303","totalShortVolume(address)":"233bbd06","transferOwnership(address)":"f2fde38b","userBalances(address)":"26224c64","withdraw(uint256)":"2e1a7d4d","withdrawInsuranceFund(uint256)":"d7b648da"},"id":32}