{"abi":[{"type":"constructor","inputs":[{"name":"_stakingToken","type":"address","internalType":"address"},{"name":"_rewardsToken","type":"address","internalType":"address"},{"name":"_rate","type":"uint256","internalType":"uint256"}],"stateMutability":"nonpayable"},{"type":"function","name":"changeratio","inputs":[{"name":"_ratio","type":"uint256","internalType":"uint256"}],"outputs":[],"stateMutability":"nonpayable"},{"type":"function","name":"claimReward","inputs":[],"outputs":[],"stateMutability":"nonpayable"},{"type":"function","name":"earned","inputs":[{"name":"account","type":"address","internalType":"address"}],"outputs":[{"name":"","type":"uint256","internalType":"uint256"}],"stateMutability":"view"},{"type":"function","name":"owner","inputs":[],"outputs":[{"name":"","type":"address","internalType":"address"}],"stateMutability":"view"},{"type":"function","name":"rate","inputs":[],"outputs":[{"name":"","type":"uint256","internalType":"uint256"}],"stateMutability":"view"},{"type":"function","name":"renounceOwnership","inputs":[],"outputs":[],"stateMutability":"nonpayable"},{"type":"function","name":"rewardsToken","inputs":[],"outputs":[{"name":"","type":"address","internalType":"contract IERC20"}],"stateMutability":"view"},{"type":"function","name":"stake","inputs":[{"name":"amount","type":"uint256","internalType":"uint256"},{"name":"duration","type":"uint256","internalType":"uint256"}],"outputs":[],"stateMutability":"nonpayable"},{"type":"function","name":"stakingToken","inputs":[],"outputs":[{"name":"","type":"address","internalType":"contract IERC20"}],"stateMutability":"view"},{"type":"function","name":"transferOwnership","inputs":[{"name":"newOwner","type":"address","internalType":"address"}],"outputs":[],"stateMutability":"nonpayable"},{"type":"function","name":"withdraw","inputs":[{"name":"amount","type":"uint256","internalType":"uint256"}],"outputs":[],"stateMutability":"nonpayable"},{"type":"event","name":"Changeratioannounce","inputs":[{"name":"ratio","type":"uint256","indexed":false,"internalType":"uint256"}],"anonymous":false},{"type":"event","name":"OwnershipTransferred","inputs":[{"name":"previousOwner","type":"address","indexed":true,"internalType":"address"},{"name":"newOwner","type":"address","indexed":true,"internalType":"address"}],"anonymous":false},{"type":"event","name":"RewardPaid","inputs":[{"name":"user","type":"address","indexed":true,"internalType":"address"},{"name":"reward","type":"uint256","indexed":false,"internalType":"uint256"}],"anonymous":false},{"type":"event","name":"Staked","inputs":[{"name":"user","type":"address","indexed":true,"internalType":"address"},{"name":"amount","type":"uint256","indexed":false,"internalType":"uint256"},{"name":"duration","type":"uint256","indexed":false,"internalType":"uint256"}],"anonymous":false},{"type":"event","name":"Withdrawn","inputs":[{"name":"user","type":"address","indexed":true,"internalType":"address"},{"name":"amount","type":"uint256","indexed":false,"internalType":"uint256"}],"anonymous":false},{"type":"error","name":"OwnableInvalidOwner","inputs":[{"name":"owner","type":"address","internalType":"address"}]},{"type":"error","name":"OwnableUnauthorizedAccount","inputs":[{"name":"account","type":"address","internalType":"address"}]},{"type":"error","name":"ReentrancyGuardReentrantCall","inputs":[]}],"bytecode":{"object":"0x6080346100f057601f610a9138819003918201601f19168301916001600160401b038311848410176100f5578084926060946040528339810103126100f0576100478161010b565b60406100556020840161010b565b92015190600160005533156100d75760018054336001600160a01b031980831682179093556040519592936001600160a01b03939284929083167f8be0079c531659141344cd1fd0a4f28419497f9722a3daafe3b4186f6b6457e0600080a3168360035416176003551690600254161760025560045561097190816101208239f35b604051631e4fbdf760e01b815260006004820152602490fd5b600080fd5b634e487b7160e01b600052604160045260246000fd5b51906001600160a01b03821682036100f05756fe60406080815260048036101561001457600080fd5b600091823560e01c80628cc262146107865780632c4e722e146107685780632e1a7d4d1461054b57806333f98ae5146104ff578063715018a61461049f57806372f702f3146104765780637b0472f0146102b75780638da5cb5b1461028e578063b88a802f1461015e578063d1af0c7d146101315763f2fde38b1461009857600080fd5b3461012d57602036600319011261012d576001600160a01b03823581811693919290849003610129576100c961090f565b8315610113575050600154826bffffffffffffffffffffffff60a01b821617600155167f8be0079c531659141344cd1fd0a4f28419497f9722a3daafe3b4186f6b6457e08380a380f35b51631e4fbdf760e01b8152908101849052602490fd5b8480fd5b8280fd5b83823461015a578160031936011261015a5760025490516001600160a01b039091168152602090f35b5080fd5b5091903461015a578160031936011261015a576101796108ec565b61018233610801565b90811561025557338084526008602090815285852085905560078152858520429055600254865163a9059cbb60e01b8152938401928352828201859052949592949092918391869182900360400190829089906001600160a01b03165af193841561024b577fe2403640ba68fed3a2f88b7557551d1993f84b99bb10ff833f0cf8db0c5e0486939461021e575b50519283523392a26001815580f35b61023d90833d8511610244575b6102358183610897565b8101906108cf565b503861020f565b503d61022b565b81513d87823e3d90fd5b606490602085519162461bcd60e51b835282015260136024820152724e6f2072657761726420617661696c61626c6560681b6044820152fd5b83823461015a578160031936011261015a5760015490516001600160a01b039091168152602090f35b5082903461015a578060031936011261015a578235906024356102d86108ec565b82156104425762278d0081148015610436575b801561042a575b801561041d575b156103da57839461030c846005546107f4565b60055533855260208091600682528487206103288782546107f4565b9055338752600782524285882055600982528385882055606460018060a01b036003541691865198899384926323b872dd60e01b845233908401523060248401528960448401525af19485156103d0577f1449c6dd7851abc30abf37f57715f492010519147cc2652fbc38202c18a6ee9094956103b3575b5082519485528401523392a26001815580f35b6103c990823d8411610244576102358183610897565b50866103a0565b83513d88823e3d90fd5b815162461bcd60e51b8152602081870152601860248201527f496e76616c6964207374616b696e67206475726174696f6e00000000000000006044820152606490fd5b506301da9c0081146102f9565b5062ed4e0081146102f2565b506276a70081146102eb565b815162461bcd60e51b8152602081870152600e60248201526d043616e6e6f74207374616b6520360941b6044820152606490fd5b83823461015a578160031936011261015a5760035490516001600160a01b039091168152602090f35b83346104fc57806003193601126104fc576104b861090f565b600180546001600160a01b0319811690915581906001600160a01b03167f8be0079c531659141344cd1fd0a4f28419497f9722a3daafe3b4186f6b6457e08280a380f35b80fd5b503461012d57602036600319011261012d57816020917fe080b494eea4f10924cc17c4d06f966d4df3ba9dc8b5e3f8dad675a0bd6963519335809261054261090f565b5551908152a180f35b50903461012d576020806003193601126107645781359161056a6108ec565b821561072f57338552600682528284862054106106ee5761058a33610801565b80610639575b509281836105f8956105a4826005546107be565b600555338852600683528388206105bc8382546107be565b9055600354845163a9059cbb60e01b8152339281019283526020830193909352919687926001600160a01b03169183918a918391604090910190565b03925af193841561024b577f7084f5476618d8e60b11ef0d7d3f06914655adb8793e28ff7f018d4c76d505d5939461021e5750519283523392a26001815580f35b3380875260088452858720879055600254865163a9059cbb60e01b81528481019283526020830184905291859183918290036040019082908b906001600160a01b03165af180156106e45792849286926105f898956106c7575b5084519081527fe2403640ba68fed3a2f88b7557551d1993f84b99bb10ff833f0cf8db0c5e0486843392a292955050610590565b6106dd90853d8711610244576102358183610897565b5038610693565b86513d89823e3d90fd5b60649184519162461bcd60e51b8352820152601f60248201527f576974686472617720616d6f756e7420657863656564732062616c616e6365006044820152fd5b60649184519162461bcd60e51b83528201526011602482015270043616e6e6f74207769746864726177203607c1b6044820152fd5b8380fd5b50903461012d578260031936011261012d5760209250549051908152f35b50903461012d57602036600319011261012d5735916001600160a01b03831683036104fc57506107b7602092610801565b9051908152f35b919082039182116107cb57565b634e487b7160e01b600052601160045260246000fd5b818102929181159184041417156107cb57565b919082018092116107cb57565b60018060a01b03169060009180835260096020526040832054600760205261082d6040852054426107be565b81156108835793670de0b6b3a764000061086f61086661085585604096610880999a046107e1565b8685526006602052858520546107e1565b600454906107e1565b0492815260086020522054906107f4565b90565b634e487b7160e01b85526012600452602485fd5b90601f8019910116810190811067ffffffffffffffff8211176108b957604052565b634e487b7160e01b600052604160045260246000fd5b908160209103126108e7575180151581036108e75790565b600080fd5b6002600054146108fd576002600055565b604051633ee5aeb560e01b8152600490fd5b6001546001600160a01b0316330361092357565b60405163118cdaa760e01b8152336004820152602490fdfea26469706673582212202c2cc3268ea6223ac7cd0f21e04a47a4f012a78b86dcb612a00ff325a6c9004c64736f6c63430008190033","linkReferences":{}},"methodIdentifiers":{"changeratio(uint256)":"33f98ae5","claimReward()":"b88a802f","earned(address)":"008cc262","owner()":"8da5cb5b","rate()":"2c4e722e","renounceOwnership()":"715018a6","rewardsToken()":"d1af0c7d","stake(uint256,uint256)":"7b0472f0","stakingToken()":"72f702f3","transferOwnership(address)":"f2fde38b","withdraw(uint256)":"2e1a7d4d"},"id":34}